:020000040000fa
:080000000002040000000000f2
:020000040000fa
:04000800a80200004a
:020000040000fa
:04000c00a802000046
:020000040000fa
:04001000a802000042
:020000040000fa
:04001400a80200003e
:020000040000fa
:04001800a80200003a
:020000040000fa
:04001c00a802000036
:020000040000fa
:04002000a802000032
:020000040000fa
:04002400a80200002e
:020000040000fa
:04002800a80200002a
:020000040000fa
:04002c00a802000026
:020000040000fa
:04003000a802000022
:020000040000fa
:04003400a80200001e
:020000040000fa
:04003800a80200001a
:020000040000fa
:04003c00a802000016
:020000040000fa
:04004000a802000012
:020000040000fa
:040044007204000042
:020000040000fa
:04004800820400002e
:020000040000fa
:04004c00a802000006
:020000040000fa
:04005000a802000002
:020000040000fa
:04005400a8020000fe
:020000040000fa
:04005800a8020000fa
:020000040000fa
:04005c00a8020000f6
:020000040000fa
:04006000a8020000f2
:020000040000fa
:04006400a8020000ee
:020000040000fa
:04006800a8020000ea
:020000040000fa
:04006c00a8020000e6
:020000040000fa
:04007000a8020000e2
:020000040000fa
:04007400a8020000de
:020000040000fa
:04007800a8020000da
:020000040000fa
:04007c00a8020000d6
:020000040000fa
:04008000a8020000d2
:020000040000fa
:04008400a8020000ce
:020000040000fa
:04008800a8020000ca
:020000040000fa
:04008c00a8020000c6
:020000040000fa
:04009000a8020000c2
:020000040000fa
:04009400a8020000be
:020000040000fa
:04009800a8020000ba
:020000040000fa
:04009c00a8020000b6
:020000040000fa
:0400a000a8020000b2
:020000040000fa
:0400a400a8020000ae
:020000040000fa
:0400a800a8020000aa
:020000040000fa
:0400ac00a8020000a6
:020000040000fa
:0400b000a8020000a2
:020000040000fa
:0400b400a80200009e
:020000040000fa
:0400b800a80200009a
:020000040000fa
:0400bc00a802000096
:020000040000fa
:0400c000a802000092
:020000040000fa
:0400c400a80200008e
:020000040000fa
:0400c800a80200008a
:020000040000fa
:0400cc00a802000086
:020000040000fa
:0400d000a802000082
:020000040000fa
:0400d400a80200007e
:020000040000fa
:0400d800a80200007a
:020000040000fa
:0400dc00a802000076
:020000040000fa
:0400e000a802000072
:020000040000fa
:0400e400a80200006e
:020000040000fa
:0400e800a80200006a
:020000040000fa
:0400ec00a802000066
:020000040000fa
:0400f000a802000062
:020000040000fa
:0400f400a80200005e
:020000040000fa
:0400f800a80200005a
:020000040000fa
:0400fc00a802000056
:020000040000fa
:04010000a802000051
:020000040000fa
:04010400a80200004d
:020000040000fa
:04010800a802000049
:020000040000fa
:04010c00a802000045
:020000040000fa
:04011000a802000041
:020000040000fa
:04011400a80200003d
:020000040000fa
:04011800a802000039
:020000040000fa
:04011c00a802000035
:020000040000fa
:04012000a802000031
:020000040000fa
:04012400a80200002d
:020000040000fa
:04012800a802000029
:020000040000fa
:04012c00a802000025
:020000040000fa
:04013000a802000021
:020000040000fa
:04013400a80200001d
:020000040000fa
:04013800a802000019
:020000040000fa
:04013c00a802000015
:020000040000fa
:04014000a802000011
:020000040000fa
:04014400a80200000d
:020000040000fa
:04014800a802000009
:020000040000fa
:04014c00a802000005
:020000040000fa
:04015000a802000001
:020000040000fa
:04015400a8020000fd
:020000040000fa
:04015800a8020000f9
:020000040000fa
:04015c00a8020000f5
:020000040000fa
:04016000a8020000f1
:020000040000fa
:04016400a8020000ed
:020000040000fa
:04020800a802000048
:020000040000fa
:04020c00a802000044
:020000040000fa
:04021000a802000040
:020000040000fa
:04021400a80200003c
:020000040000fa
:04021800a802000038
:020000040000fa
:04021c00a802000034
:020000040000fa
:04022000a802000030
:020000040000fa
:04022400a80200002c
:020000040000fa
:04022800a802000028
:020000040000fa
:04022c00a802000024
:020000040000fa
:04023000a802000020
:020000040000fa
:04023400a80200001c
:020000040000fa
:04023800a802000018
:020000040000fa
:04023c00a802000014
:020000040000fa
:04024000a802000010
:020000040000fa
:04024400a80200000c
:020000040000fa
:04024800a802000008
:020000040000fa
:04024c00a802000004
:020000040000fa
:04025000a802000000
:020000040000fa
:04025400a8020000fc
:020000040000fa
:04025800a8020000f8
:020000040000fa
:04025c00a8020000f4
:020000040000fa
:04026000a8020000f0
:020000040000fa
:04026400a8020000ec
:020000040000fa
:04026800a8020000e8
:020000040000fa
:04026c00a8020000e4
:020000040000fa
:04027000a8020000e0
:020000040000fa
:04027400a8020000dc
:020000040000fa
:04027800a8020000d8
:020000040000fa
:04027c00a8020000d4
:020000040000fa
:04028000a8020000d0
:020000040000fa
:04028400a8020000cc
:020000040000fa
:04028800a8020000c8
:020000040000fa
:04028c00a8020000c4
:020000040000fa
:04029000a8020000c0
:020000040000fa
:04029400a8020000bc
:020000040000fa
:04029800a8020000b8
:020000040000fa
:04029c00a8020000b4
:020000040000fa
:0402a000a8020000b0
:020000040000fa
:0402a400a8020000ac
:020000040000fa
:0402a800a8020000a8
:020000040000fa
:0402ac00a8020000a4
:020000040000fa
:0402b000a8020000a0
:020000040000fa
:0402b400a80200009c
:020000040000fa
:0402b800a802000098
:020000040000fa
:0402bc00a802000094
:020000040000fa
:0402c000a802000090
:020000040000fa
:0402c400a80200008c
:020000040000fa
:0402c800a802000088
:020000040000fa
:0402cc00a802000084
:020000040000fa
:0402d000a802000080
:020000040000fa
:0402d400a80200007c
:020000040000fa
:0402d800a802000078
:020000040000fa
:0402dc00a802000074
:020000040000fa
:0402e000a802000070
:020000040000fa
:0402e400a80200006c
:020000040000fa
:0402e800a802000068
:020000040000fa
:0402ec00a802000064
:020000040000fa
:0402f000a802000060
:020000040000fa
:0402f400a80200005c
:020000040000fa
:0402f800a802000058
:020000040000fa
:0402fc00a802000054
:020000040000fa
:04030000a80200004f
:020000040000fa
:04030400a80200004b
:020000040000fa
:04030800a802000047
:020000040000fa
:04030c00a802000043
:020000040000fa
:04031000a80200003f
:020000040000fa
:04031400a80200003b
:020000040000fa
:04031800a802000037
:020000040000fa
:04031c00a802000033
:020000040000fa
:04032000a80200002f
:020000040000fa
:04032400a80200002b
:020000040000fa
:04032800a802000027
:020000040000fa
:04032c00a802000023
:020000040000fa
:04033000a80200001f
:020000040000fa
:04033400a80200001b
:020000040000fa
:04033800a802000017
:020000040000fa
:04033c00a802000013
:020000040000fa
:04034000a80200000f
:020000040000fa
:04034400a80200000b
:020000040000fa
:04034800a802000007
:020000040000fa
:04034c00a802000003
:020000040000fa
:04035000a8020000ff
:020000040000fa
:04035400a8020000fb
:020000040000fa
:04035800a8020000f7
:020000040000fa
:04035c00a8020000f3
:020000040000fa
:04036000a8020000ef
:020000040000fa
:04036400a8020000eb
:020000040000fa
:100400000f8120000e7f22000e01880000000000f6
:10041000000020000000e000020032000001200087
:10042000200288000c000700005820000100200076
:1004300011000700000020000000e0000200320070
:1004400000000200000000001a0502000000000089
:100450000040da000000fe004440a9000000200037
:100460000000e0000300320000002000a00188002e
:100470004440a80000000600910188008000780038
:100480000000eb0015003700e280400032a0b4000d
:100490009101ba00e280400032a0b4009102ba009b
:1004a000e280400032a0b4000002eb00472bde00e7
:1004b000f507b200602ce10004003a000059eb009f
:1004c0008301e900fdff3e00040037006128e100e0
:1004d000010032000082eb000b00070011c3ba00dc
:1004e0001101ba000604e00003003a000200e00037
:1004f000e5ff3a0000000600f607b200960188000a
:1005000082007800f5ff37003159ba008301e90015
:100510000c0032002159ba008301e90008003200c2
:100520000400e00003003a00e280400032a0b40082
:10053000f5ff370011d9ba008301e900faff3a004c
:100540008100e800e180400032a0b4000000060015
:080550000040da000000fe008b
:020000040000fa
:100558000200fa00000f78001e0078004019880099
:100568002023a8000000000000198000610060003e
:100578000000e000fcff3200001880000080fa0054
:10058800000006000200fa00000f78001e00780044
:100598000b00070060198800000e20000019880071
:1005a8002143a8003023ef0020f021002019880003
:1005b8002223ef0021e3a8000080fa0000000600d3
:1005c8000400fa0010079800e0ff2f00000f7800e1
:1005d8001e0090000000e00002003a00e0ff2f003b
:1005e800000f78001e009000e10f500002003a0052
:1005f800d0ff2f00000f78001e009000e20f50007f
:1006080002003a00b0ff2f00000f78001e00900093
:10061800e30f500002003a0070ff2f00000f78002f
:100628001e009000e40f500002003a00f0fe2f0078
:10063800000f78001e009000e50f500002003a00fd
:10064800f0fd2f00000f78001e009000e90f500009
:1006580002003a00f0df2f00000f78001e00900023
:10066800ea0f500002003a00f0bf2f00000f780098
:100678001e009000eb0f500002003a00f07f2f00a0
:10068800000f78001e009000ec0f500002003a00a6
:10069800f0ff2e00000f78001e0078000080fa009e
:1006a800000006000200fa00000f78000068ef0062
:1006b8000168ef000268ef000368ef000468ef00cc
:1006c80005003700008f2d001e0f400000c8bf0036
:1006d8000040e80000e8b700f07022009e007800b3
:1006e800808f5000f7ff3c000500370081c12f00c4
:1006f8001e8f400001c8bf000040e80001e8b700b5
:10070800703e20009e007800808f5000f7ff3c006c
:1007180005003700c1f92f001e8f400002c8bf0036
:100728000040e80002e8b700300620009e0078008c
:10073800808f5000f7ff3c00050037009e007800ce
:100748006a8f500003c8bf000040e80003e8b70004
:100758001e007800e90f5000f8ff3c001e007800ea
:100768000040780004e8b70000c8bf000043b000ac
:1007780000e8b70001c8bf000043b00001e8b700b7
:1007880002c8bf000043b00002e8b70003c8bf00ba
:100798000043b00003e8b70004c8bf000043b0003e
:1007a80004e8b7000080fa00000006000400fa0020
:1007b800100798009e009000010f78000628ef00af
:1007c8001e00780062ff0700304088001e00780095
:1007d8005fff070031408000010040003040880082
:1007e8001e0078005aff07003140800001004000d9
:1007f800304088001e00780055ff07003140800017
:100808000100400030408800314080004000200056
:1008180000017800110009008200d80030408800eb
:10082800304080000080fa00000006000000fa0056
:1008380011e1a900004022006008880090152000fe
:10084800000c880090152000100c88008461a90015
:10085800200c80000000a1000010a0000020a000d3
:10086800200c8800800880000040a0000050a100f3
:10087800800888001021a90011e1a8000080fa0072
:10088800000006000000fa0013e1a9000040220061
:100898007008880080252000300c88008025200002
:1008a800400c88008a61a800500c80000000a1005c
:1008b8000010a0000020a000500c880090088000c4
:1008c8000040a0000050a100900888001221a90053
:1008d80013e1a8000080fa0000000600801f7800dd
:1008e8000000fa0084e0a90040408000000c880065
:1008f8000080fa004f00780000400600801f780052
:100908000000fa008500a90050408000300c8800e3
:100918000080fa004f007800004006000000fa004e
:10092800113a8000f00b2000008160006004200074
:1009380071052000237420008049780081497800df
:100948008249780001368000f00f2e008080600018
:100958000020210001007000003688001136800058
:1009680000fe2f00008060003001b30010368800c0
:10097800113a80000004200001017000600420008a
:10098800710520002374200080497800814978008f
:10099800824978000080fa00000006001000fa0082
:1009a800500798006107980072079800fe009000b1
:1009b8006e009000008f50005e0090006101b8004a
:1009c8001e0078008000eb00009ab900040278004d
:1009d800028bb90086027800050242000010b800b8
:1009e800010242008400780010079800210798004f
:1009f80010079800210798001e009000ae00900094
:100a08004409dd004c00de0000007100cc08de0067
:100a18003007980041079800be0090006e009000d3
:100a2800008040000080fa00000006000000fa0084
:100a3800baff07007dff070092ff070010002000a3
:100a4800d0fe07002c03a8002d23a800c002a9008f
:100a5800c9e2a80084e0a90094e0a8008500a900e4
:100a68009500a80010002000b9fe0700604088002b
:100a780020ff280001002000110007005116800007
:100a880000002800008060000000e00006003a0036
:100a980060408000c240200091152000bfff070081
:100aa80040408800efff370060408000f2302000af
:100ab80081252000b9ff070050408800e9ff370072
:020000040000fa
:100ac800f03fb1000180b10006003500ee030900d7
:100ad80000000000403fb1000180b100fbff3d0075
:100ae8001000b000203fb00002003500008009006f
:080af8000000000000000600f0
:020000040000fa
:100b0000080800000400000002000000590158001d
:100b1000020000000c0800000400000000000000bb
:100b20000008000008000000000000009805800098
:020000040000fa
:040b300000000000c1
:020000040000fa
:0200000401f009
:04000c008000000070
:020000040000fa
:0200000401f009
:04001000a300000049
:020000040000fa
:0200000401f009
:040014005f00000089
:00000001FF
