:020000040000fa
:080000000002040000000000f2
:020000040000fa
:04000800cc02000026
:020000040000fa
:04000c00cc02000022
:020000040000fa
:04001000cc0200001e
:020000040000fa
:04001400cc0200001a
:020000040000fa
:04001800cc02000016
:020000040000fa
:04001c00cc02000012
:020000040000fa
:04002000cc0200000e
:020000040000fa
:04002400cc0200000a
:020000040000fa
:04002800cc02000006
:020000040000fa
:04002c00cc02000002
:020000040000fa
:04003000cc020000fe
:020000040000fa
:04003400cc020000fa
:020000040000fa
:04003800cc020000f6
:020000040000fa
:04003c00cc020000f2
:020000040000fa
:04004000cc020000ee
:020000040000fa
:04004400cc020000ea
:020000040000fa
:04004800cc020000e6
:020000040000fa
:04004c00cc020000e2
:020000040000fa
:04005000cc020000de
:020000040000fa
:04005400cc020000da
:020000040000fa
:04005800cc020000d6
:020000040000fa
:04005c00cc020000d2
:020000040000fa
:04006000cc020000ce
:020000040000fa
:04006400cc020000ca
:020000040000fa
:04006800cc020000c6
:020000040000fa
:04006c00cc020000c2
:020000040000fa
:04007000cc020000be
:020000040000fa
:04007400cc020000ba
:020000040000fa
:04007800cc020000b6
:020000040000fa
:04007c00cc020000b2
:020000040000fa
:04008000cc020000ae
:020000040000fa
:04008400cc020000aa
:020000040000fa
:04008800cc020000a6
:020000040000fa
:04008c00cc020000a2
:020000040000fa
:04009000cc0200009e
:020000040000fa
:04009400cc0200009a
:020000040000fa
:04009800cc02000096
:020000040000fa
:04009c00cc02000092
:020000040000fa
:0400a000cc0200008e
:020000040000fa
:0400a400cc0200008a
:020000040000fa
:0400a800cc02000086
:020000040000fa
:0400ac00cc02000082
:020000040000fa
:0400b000cc0200007e
:020000040000fa
:0400b400cc0200007a
:020000040000fa
:0400b800cc02000076
:020000040000fa
:0400bc00cc02000072
:020000040000fa
:0400c000cc0200006e
:020000040000fa
:0400c400cc0200006a
:020000040000fa
:0400c800cc02000066
:020000040000fa
:0400cc00cc02000062
:020000040000fa
:0400d000cc0200005e
:020000040000fa
:0400d400cc0200005a
:020000040000fa
:0400d800cc02000056
:020000040000fa
:0400dc00cc02000052
:020000040000fa
:0400e000cc0200004e
:020000040000fa
:0400e400cc0200004a
:020000040000fa
:0400e800cc02000046
:020000040000fa
:0400ec00cc02000042
:020000040000fa
:0400f000cc0200003e
:020000040000fa
:0400f400cc0200003a
:020000040000fa
:0400f800cc02000036
:020000040000fa
:0400fc00cc02000032
:020000040000fa
:04010000cc0200002d
:020000040000fa
:04010400cc02000029
:020000040000fa
:04010800cc02000025
:020000040000fa
:04010c00cc02000021
:020000040000fa
:04011000cc0200001d
:020000040000fa
:04011400cc02000019
:020000040000fa
:04011800cc02000015
:020000040000fa
:04011c00cc02000011
:020000040000fa
:04012000cc0200000d
:020000040000fa
:04012400cc02000009
:020000040000fa
:04012800cc02000005
:020000040000fa
:04012c00cc02000001
:020000040000fa
:04013000cc020000fd
:020000040000fa
:04013400cc020000f9
:020000040000fa
:04013800cc020000f5
:020000040000fa
:04013c00cc020000f1
:020000040000fa
:04014000cc020000ed
:020000040000fa
:04014400cc020000e9
:020000040000fa
:04014800cc020000e5
:020000040000fa
:04014c00cc020000e1
:020000040000fa
:04015000cc020000dd
:020000040000fa
:04015400cc020000d9
:020000040000fa
:04015800cc020000d5
:020000040000fa
:04015c00cc020000d1
:020000040000fa
:04016000cc020000cd
:020000040000fa
:04016400cc020000c9
:020000040000fa
:04020800cc02000024
:020000040000fa
:04020c00cc02000020
:020000040000fa
:04021000cc0200001c
:020000040000fa
:04021400cc02000018
:020000040000fa
:04021800cc02000014
:020000040000fa
:04021c00cc02000010
:020000040000fa
:04022000cc0200000c
:020000040000fa
:04022400cc02000008
:020000040000fa
:04022800cc02000004
:020000040000fa
:04022c00cc02000000
:020000040000fa
:04023000cc020000fc
:020000040000fa
:04023400cc020000f8
:020000040000fa
:04023800cc020000f4
:020000040000fa
:04023c00cc020000f0
:020000040000fa
:04024000cc020000ec
:020000040000fa
:04024400cc020000e8
:020000040000fa
:04024800cc020000e4
:020000040000fa
:04024c00cc020000e0
:020000040000fa
:04025000cc020000dc
:020000040000fa
:04025400cc020000d8
:020000040000fa
:04025800cc020000d4
:020000040000fa
:04025c00cc020000d0
:020000040000fa
:04026000cc020000cc
:020000040000fa
:04026400cc020000c8
:020000040000fa
:04026800cc020000c4
:020000040000fa
:04026c00cc020000c0
:020000040000fa
:04027000cc020000bc
:020000040000fa
:04027400cc020000b8
:020000040000fa
:04027800cc020000b4
:020000040000fa
:04027c00cc020000b0
:020000040000fa
:04028000cc020000ac
:020000040000fa
:04028400cc020000a8
:020000040000fa
:04028800cc020000a4
:020000040000fa
:04028c00cc020000a0
:020000040000fa
:04029000cc0200009c
:020000040000fa
:04029400cc02000098
:020000040000fa
:04029800cc02000094
:020000040000fa
:04029c00cc02000090
:020000040000fa
:0402a000cc0200008c
:020000040000fa
:0402a400cc02000088
:020000040000fa
:0402a800cc02000084
:020000040000fa
:0402ac00cc02000080
:020000040000fa
:0402b000cc0200007c
:020000040000fa
:0402b400cc02000078
:020000040000fa
:0402b800cc02000074
:020000040000fa
:0402bc00cc02000070
:020000040000fa
:0402c000cc0200006c
:020000040000fa
:0402c400cc02000068
:020000040000fa
:0402c800cc02000064
:020000040000fa
:0402cc00cc02000060
:020000040000fa
:0402d000cc0200005c
:020000040000fa
:0402d400cc02000058
:020000040000fa
:0402d800cc02000054
:020000040000fa
:0402dc00cc02000050
:020000040000fa
:0402e000cc0200004c
:020000040000fa
:0402e400cc02000048
:020000040000fa
:0402e800cc02000044
:020000040000fa
:0402ec00cc02000040
:020000040000fa
:0402f000cc0200003c
:020000040000fa
:0402f400cc02000038
:020000040000fa
:0402f800cc02000034
:020000040000fa
:0402fc00cc02000030
:020000040000fa
:04030000cc0200002b
:020000040000fa
:04030400cc02000027
:020000040000fa
:04030800cc02000023
:020000040000fa
:04030c00cc0200001f
:020000040000fa
:04031000cc0200001b
:020000040000fa
:04031400cc02000017
:020000040000fa
:04031800cc02000013
:020000040000fa
:04031c00cc0200000f
:020000040000fa
:04032000cc0200000b
:020000040000fa
:04032400cc02000007
:020000040000fa
:04032800cc02000003
:020000040000fa
:04032c00cc020000ff
:020000040000fa
:04033000cc020000fb
:020000040000fa
:04033400cc020000f7
:020000040000fa
:04033800cc020000f3
:020000040000fa
:04033c00cc020000ef
:020000040000fa
:04034000cc020000eb
:020000040000fa
:04034400cc020000e7
:020000040000fa
:04034800cc020000e3
:020000040000fa
:04034c00cc020000df
:020000040000fa
:04035000cc020000db
:020000040000fa
:04035400cc020000d7
:020000040000fa
:04035800cc020000d3
:020000040000fa
:04035c00cc020000cf
:020000040000fa
:04036000cc020000cb
:020000040000fa
:04036400cc020000c7
:020000040000fa
:10040000cf8e20000e7f22000e0188000000000029
:10041000000020000000e000020032000001200087
:1004200020028800140007005d0007000000e000c3
:1004300003003a0040a32100010020000200370021
:100440000000200001002000810f70000100320038
:1004500014000700000020000000e000020032004d
:1004600000000200000000009819020000000000d7
:100470000040da000000fe004440a900c001200056
:100480000000e0000300320000002000a00188000e
:100490004440a800000006008a1f78008b1f7800e7
:1004a0000000060091018800800478000000eb0045
:1004b0001a003700e284440032a0b4009905ba0063
:1004c000e284440032a0b4009906ba00e2844400f9
:1004d00032a0b4000006eb00476fde00fd07b2005b
:1004e000636ce10003003a00ebff07000000eb0043
:1004f0000a003700606ce10004003a00005deb0088
:100500008b05e900fdff3e00040037006168e10053
:10051000010032000086eb000b00070019c7ba008b
:100520001905ba000e04e00003003a000a00e000da
:10053000e0ff3a0000000600fe07b2009e018800be
:100540008a047800f5ff3700395dba008b05e900b1
:100550000c003200295dba008b05e900080032006a
:100560000c00e00003003a00e284440032a0b40032
:10057000f5ff370019ddba008b05e900faff3a00f4
:100580008904e800e184440032a0b40000000600c1
:1005900012060400000000000040da000000fe0027
:1005a0000000050003f0a200889fbe008a9fbe00e5
:1005b0008c1f7800c6000700cd0033006450e100b6
:1005c0004f0032006420e1005200320003826c00d0
:1005d00007003b000905d0000306d000820f54003d
:1005e0000c065d000200390002003200890178002b
:1005f000030678008582550004003d000003fd00dd
:100600008103fd008502ea008b854200840f7200a1
:1006100002003b0060001000e08018006011b8008c
:100620000005eb007a28e1000a0039000600780096
:10063000c75ddd00f707b200878075002d00370029
:10064000828171000a017800610560008180d1001b
:100650000080d3008502e900f9ff3b00060440005a
:100660008784480002003b0060041400e0841c0002
:100670000988a300070032008a817100828171001d
:10068000610164008904d1000884d3008b05e8006f
:10069000170037000978a30013003a000b00e000b0
:1006a000130034008b05e9000804440089844c00e1
:1006b0000a4474000978a3000d003a000b00e00022
:1006c000070034008b05e9000804440089844c00cd
:1006d00001003a000b0020000978a300f7ff320068
:1006e0000001eb0002003700828171000a017800ee
:1006f000510007000cf0a70001f0a00085003700b2
:100700006420e10002003a00838f6c008500330012
:100710000801be000200be007e003700889fbe00b8
:100720008a9fbe008c1f78006900070070003300ac
:1007300003866c006450e1002e0032006420e1006a
:10074000330032006150e1002f0032006120e100ef
:100750003100320085855500eb07b000090020000c
:1007600008042000050037000804440089844c0078
:100770000a0031000603430087834b000001530049
:1007800081815b00f8ff33000203be000800a00077
:100790000804440089844c00f6ff3900c639dd00a6
:1007a0008301730001003200130020008904d1008e
:1007b0000884d3000998a300050032000800a700b0
:1007c0000300a0008904d1000884d3008b05e80051
:1007d0008904d1000884d3000001eb000281d2001b
:1007e0001500070001f0a1000cf0a70001f0a00027
:1007f000480037006420e1004a0032000801be00d2
:100800000200be00f7ff37006120e1004500320022
:100810006000b800f3ff37000000200001f8270057
:10082000f0ff37004f89de0082017800a900370011
:100830006011b800b70037008100200061805500ca
:100840000b003d000b00200061fe2f000100e100c5
:100850001d00340082817100610164008904d100af
:100860000884d3000000e800faff3a00710020007d
:1008700061006400030070000200600009003200a3
:1008800061044400e0844c000988a50005003200a2
:100890008b05e8006808e10002003a008904d100f5
:1008a0000884d300f20f20000258e10005003d004b
:1008b000c75ddd00f907b200898075000800780087
:1008c000000006000bf827008b00780000000500f0
:1008d0000004be00be0007000003be000405be0009
:1008e0000200be00ba000700844f75000000060039
:1008f0000200be006450e100050036006420e10003
:10090000020036000968a30001003a000800be009a
:100910000160a0004f0678004f05be004f04be00e6
:1009200000000600f0ff2f00f1ff2700f9ff37005d
:10093000889fbe008a9fbe008c1f7800e4ff0700de
:10094000ebff330003866c006450e10024003200aa
:100950006420e100270032006150e10022003200f3
:100960006120e100210032008b854200eb07b100dd
:100970000134b800003ab8000804420089844a00f3
:10098000013ab8000030b8008880400009014a00f0
:10099000040033000000400081804800020149004b
:1009a0008b05e900c909dd008301700001003200f8
:1009b00013002000c814de004814dd004709de00e3
:1009c0001200b200c808de00088470009aff070019
:1009d00001f0a1000cf0a70001f0a000cdff37004e
:1009e0006120e100cfff32000801be000200be001e
:1009f000f7ff37006150e100fcff3a00c9ff370004
:100a0000889fbe008a9fbe008c1f78000004be0035
:100a10006f0007000478a30026003a006120e1007f
:100a20002500320009f8a30025003a006420e10007
:100a300021003200f507b1000508a30002003200d2
:100a400000004000818048006044b800031020008e
:100a5000020020000000400081804800080544009a
:100a600089854c000a0541008b8549000a05500024
:100a70008b855800030033000a00be000204740096
:100a8000838474008301d1000281d300830f71003d
:100a9000f0ff3a008904d1000884d30060014900c6
:100aa00082017800c1adde00fb07b00062ff0700e5
:100ab00098ff37000960a0000800be0095ff3700ce
:100ac0001202200032418800f0ff2f00f1ff2700c2
:100ad00090ff3700881f7800030478000300e000cf
:100ae00007003d0060001000e08018006001190060
:100af000e081190002003b0001f02d0003003700e7
:100b00000400070008f0a70001f0a0004f047800df
:100b100000000600889fbe008a9fbe000082700011
:100b20000402710004827100260032000004be003d
:100b30000200be006011b8006b0920009502200081
:100b40000182cf000a0039000541b1000082cf00c8
:100b5000070039000541b1000982cf0004003900c7
:100b60000541b1000882cf00010039000541b10004
:100b700005425200120032000a003b0082817100df
:100b8000610164008100d1000080d3008984d3001a
:100b90000884d3008b05e8000442e800f7ff3a0020
:100ba000070037000804440089844c000000480016
:100bb000818048008b05e9000442e900f9ff3a0012
:100bc0001dff07004f05be004f04be0000000600d9
:100bd000c70ade00f107b200f50fb20008003200cc
:100be000e1cf4200020032000170a00024000500a5
:100bf000810f700001003200040805004400050068
:100c0000810f700002003a00140005008502e9001f
:100c10000000400081c04800fcff3b000170a000c4
:100c200024000500881f780002047800080178007d
:100c300062030700080040004f047800000006002f
:100c40000000fa00881f780000047800ea8157004d
:100c50003fb9970088007800206120000700070056
:100c60000000e000020035008040eb0001747800d5
:100c70004f0478000080fa00000006006200fa00cd
:100c8000889fbe008a1f78000005780081047800e4
:100c9000020478008300780080f92f000f004000e4
:100ca0003f0407009a979f00a9979f000000eb0060
:100cb000b09f9f001885fb008a04fb000a05ea002c
:100cc0004f55de0050022000808f54000d0032008e
:100cd000e10f55000b003a000a0178008800780007
:100ce0002f9097009f91970003000100a0979f000d
:100cf0000000e0008e0032003f9897000000e800fe
:100d0000b09f9f000a04440050022000808f5400ce
:100d1000040032000900e000e6ff3a003f98970027
:100d2000840037000000eb00909f9f00809f9f0091
:100d3000f0979f00e0979f00d0979f00c0979f007b
:100d400007003700418e20000100500000004000e5
:100d5000818d200061007800df989700010070000d
:100d6000d09f9f00880478000904780038457800f7
:100d70008a00fb00408e2000170307000000e000ff
:100d8000f0ff3a00a1c2b300814f55000e003a00b7
:100d9000cf8897000180e900c08f9f001000780085
:100da000c09f9f000000e00005003d000000ea0039
:100db000c09f9f005f9897000020a000d09f9f00d9
:100dc0000904e8000f003700c09f9f000000eb00ff
:100dd00005003700f2ff2700820f500002003200aa
:100de0006a01b90002804000090478008804780094
:100df000b900fb000103b100e98f5000f5ff360098
:100e0000c09f9f00e0c2b300984f10000200320064
:100e10000080eb0019003700a0c2b300d84f1000cb
:100e200007003a00cf8897000180e900c08f9f003b
:100e300010007800a09f9f000804e8001000370011
:100e40000000eb00a09f9f0088007800050037009d
:100e5000f3ff2700830f5000020032006a02b9003e
:100e60000400410001047800880078003101fb0093
:100e70000203b100e90f5100f5ff3600a09f9f006b
:100e8000984478008900fb00008d2000d202070002
:100e90000000e000020032000804e8000100370012
:100ea0008044eb00c97f9f0080c6b30080cf540010
:100eb00004003a0098cf14000a003a00664050003f
:100ec00006003700c0c6b30080cf540005003a00ca
:100ed00098cf140003003a0065404000c07f9f0097
:100ee0000804e8001801fb00e3fb2f008f8141009c
:100ef00081f92f008f804000a0f92f000f004000e3
:100f0000100007000000e00009003a00e1fb2f009c
:100f10008f804000a0f92f000f004000e40207007e
:100f20000000e000020035000804e80061ff37001f
:100f30000080eb004f0578004f04be000080fa00ef
:100f400000000600889fbe008a1f78000004780019
:100f5000824478000305780070c4b30080cf540049
:100f60000a003c0000c0e90080cf54000f003d00a3
:100f700050c2b30080cf5400350032007c404000a6
:100f800080cf540035003a000800370010c6b30087
:100f900080cf54000500320030003500b0c9b300e6
:100fa00000c04400e24f50002c003e002861900039
:100fb000c0c4b300804f510006003a001101780010
:100fc00068005100800878005001be004000be005b
:100fd0000500370011017800640051008008780096
:100fe0001000be0074040700009cbe000294be0006
:100ff000b8009000780090000100e00002003d0081
:10100000d1c2b30008003700881090000118a30077
:1010100002003200b1c2b300030037000108a30090
:101020000400320001c2b300017578000000e8003e
:101030007004980078009000000545006a0498004c
:101040008900fb0008007800100007000b00370043
:10105000780090000975780006003700780090004d
:10106000000545000904e00001003a0059c2b30040
:10107000094d78000000e800700498000000eb00c3
:101080004f0578004f04be00000006002f04b0009a
:10109000889fbe008a9fbe008c9fbe008e1f780076
:1010a0000007780081f79f003e04be002e05be00b9
:1010b0005e0890000000e00002003d00600020009b
:1010c000500f98008e00780020fb2f000f0040008a
:1010d0004d020700e20f50000a003a0030002000e5
:1010e000100f9800b1c9b3000ff097008140400085
:1010f000c0822000e1cf50000d003e008082200021
:101100000b0037000000e0000f003400300020002a
:10111000100f9800b1c9b3000ff197008140410052
:1011200040832000e1cf500001003e0000832000fa
:10113000ee009000b0487800b06878001040780069
:1011400090409800f30037000000e00005003a00ee
:1011500022fb2f000f014100001978008001eb00f5
:10116000e70037006022b8006033b8000800be0016
:101170000a01be00580307000000e00001003d0026
:101180000bf0a200705927009f9897000088b900c3
:10119000026a280013002000b30307006406500011
:1011a0009c9f9f0013003b0063061600c0ff2f00aa
:1011b000000666008c01ea00939f9f008d8320004b
:1011c0000800be000a01be00070037000c08a3009b
:1011d000030032003d02be002d03be0044040700a0
:1011e0000c86d100e88646000c00e000f7ff3c00ca
:1011f000180037000c00e00018003200c0ff2f007c
:10120000000666009c9f9f008d8320006000b80050
:101210000200200003ff2300070037000c08a30092
:10122000030032003d02be002d03be003004070063
:101230000c86d100e88646000c00e000f7ff3c0079
:101240000002be000203be000800be000a01be008c
:101250002b0307000004be000205be00de0890005c
:1012600060c6b3000ff29700804f520004003200b6
:101270006000200062c4b300824f520002003a00b6
:101280009f9a97006a80420081004000f1b79f005a
:1012900001037800f30f53000200340037012000ef
:1012a000f7b79f0000c3b300c0779f0056fb2f0025
:1012b0000f0343000e007800a0b79f0006077800d8
:1012c0003d0037000800be000a01be00d903070038
:1012d0000006be007fb1970068015100f2b79f0081
:1012e0004240a9000c003400fe0307000002be00cb
:1012f0000203be000800be000a01be007104070020
:101300006022b80046782d0077192400f803070002
:101310000004be000205be00e80047008e00200069
:101320000802be000a03be00b4b79f00c5b79f0005
:10133000d6b79f00e7b79f000c01be0001047800fc
:101340000c003700a400200005002000c0fd2f0085
:101350000f004000840107006fa89700ffa89700c6
:101360000fb197009fb1970005c3b300056441001a
:101370000001be00e00f5100e08f5900030034006f
:101380000e07e900e10f4700eeff3a008800780001
:101390003fb49700cfb497005fb59700efb59700c3
:1013a0000200370000c3b300806078000e07e90038
:1013b000fcff3b00688740007fb397000600e00019
:1013c000070034006022b8006033b8000800be0097
:1013d0000a01be00c50207000000e000b9ff3c00a2
:1013e0000e0378002fb7970051fb2f008f8040002d
:1013f000010353009f9b970067804300909f9f00cd
:10140000020037000603e9000000e900010178004e
:101410008200780003c3b300b1cf1100f9ff32009e
:10142000909f9f00de09900061c6b3000ff2970005
:10143000814f52000300320061c4b300814f52005b
:1014400002003a000000e8000a0037001000200007
:1014500051c6b3008ff2970081cf520005003200d1
:101460000540780050c4b2000080fb000000e90095
:101470004f00de0083014000868f510001003400e0
:10148000860178000300e0001d00350000c3b300b2
:10149000868f510006003d0062c27900694040001d
:1014a00041c3b300814f520001003c00694050002d
:1014b0008300e900810041000100370084017800c9
:1014c0000302e90001037800a142780080cf5200b6
:1014d000faff320091c3b300814f500001003a007f
:1014e000054be8000400e00005003d000201e900b2
:1014f0008301e8001f9b97000603e800969f9f006a
:101500008ff397008700fb001f9a97000e0078006a
:10151000060007004f0778004f06be004f05be00cb
:101520004f04be002f04b10000000600f087470002
:10153000889fbe008a9fbe008c9fbe008e1f7800d1
:1015400000047800814478000205be00040678009b
:101550000b00e00002003c001b002000aa8e2000cf
:1015600060c6b30080cf54000e00320060c4b300e8
:1015700080cf54000b00320070c6b30080cf5400ff
:101580000300320070c4b30080cf540081003a00e1
:10159000e40f46007f00350058089000800f560089
:1015a0007c003d000c06e80060c6b30080cf54000c
:1015b0001000320060c4b30080cf54000d00320030
:1015c000081090000038a30004003a00580890006a
:1015d000808f550001003d005b0c9800580890007a
:1015e0000c005000500c980002003b000000eb0083
:1015f000500c980018089000e80090000c00e000e3
:1016000026003c0002c3b300827078000000e800ae
:10161000100c9800d80890000100e00003003c0086
:10162000881090000138a30005003200e800900007
:10163000e2c2b300827078000000e800100c98004d
:10164000580890008c00ea00810f500001003d0016
:101650000006ea008c00ea00210c98000006460013
:101660005c0c98008b0f5600010034000b067800cc
:101670003c0c9800e80090001808900000804000a2
:101680000c0178008a007800cc0007005808900010
:101690000c0650004c0c9800900037008c8f5500c1
:1016a00018003d00008040000b0178008a0078009f
:1016b000c20007001808900000804500100c980038
:1016c0008b0556002b0c9800d80890000100e00014
:1016d00003003c00881090000138a300060032008f
:1016e000e8009000e2c2b3008270780038089000f1
:1016f0000000e800300c980058089000400c98005a
:1017000076003700008040000c0178008a007800e5
:10171000aa0007001808900000004600100c98006e
:101720008c855500d80890000100e00003003c00c3
:10173000881090000138a30005003200e8009000f6
:10174000e2c2b300827078000000e800100c98003c
:1017500058089000808f5500010034008005780003
:10176000e800900018089000008040008c004500c0
:101770000b01780091000700180890000b00400052
:10178000100c9800580890008b0550002b0c980006
:101790005200370018089000e80090009a70780016
:1017a0000000e800100c9800d80890000100e0004c
:1017b00003003c00881090000138a30005003200af
:1017c000e8009000e2c2b300827078000000e800f8
:1017d000100c9800580890000000e0001000340041
:1017e0008b05e900808f55000100340080057800ea
:1017f000e800900018089000008040008a00e8008f
:101800000b0178006d000700180890000b004000e5
:10181000100c9800580890008b0550002b0c980075
:10182000e8009000180890000080400009587800f7
:101830000007e8000c00e00004003500b1c2b3006e
:10184000014878008e04780004003700d1c2b3004c
:10185000014878008e0478000c06ea007d85570068
:101860008006eb0009003700a20020008c00780001
:1018700072805700310007007fb097008fb8970043
:10188000016d7800000678008d06e8000c00e0008d
:10189000f5ff3c000d00e00009003a008e047800de
:1018a00000c3b300805c7800050037008d06e900b6
:1018b000fc80570061c07e0002c3b300825c400020
:1018c0000d00e000f9ff3c00e800900018089000cf
:1018d0000080400080845400390c9800081090006b
:1018e00074006000f00f50000e003a00980890005d
:1018f0007800900000804000a8089000010040009f
:10190000b808900001004000c808900001004000a5
:10191000f8089000810f500002003d000080500048
:10192000000c98004f0778004f06be004f05be0020
:101930004f04be000f01b1000000060080027800d5
:1019400001037800110009000203d800800178002b
:10195000830a78000299b9000201530092029800ac
:101960000500780000000600881f78008a9fbe00ee
:101970008c9fbe00000478000205be000406be0075
:101980000401be000a00be00b7010700008cbe00c3
:101990000c01be00dd0207000005550081855d00d9
:1019a0002a0498003b049800080078004f06be0007
:1019b0004f05be004f04780000000600800178004b
:1019c00002003700b15978000201e9000200e0008e
:1019d000fcff3a0000000600020037000304e000ac
:1019e000060032000001780002007800b041780063
:1019f00081cf5100f9ff3a00010037000001eb00f0
:101a00000200780000000600889fbe0000047800f5
:101a1000e68440001900d0004500de00f27f20007f
:101a2000820f500010003a00000ceb00990478007f
:101a30006f816400200020001b003a00210190000b
:101a40000200e00018003a00110190000200e000de
:101a500015003a00100020001100e00012003200d2
:101a600020002000100037000000e00004003a00d1
:101a700001007800cc0007000000e00008003c00f6
:101a8000f20028001901610001fe2300810c7100a1
:101a900021c02f00010c40000080eb000200370045
:101aa000000ceb000000eb004f04be00000006003d
:101ab0000400fa00889fbe008a9fbe008c1f780039
:101ac0000004780001067800f80d9000780090007e
:101ad0008085550008089000808555001808900002
:101ae00080855500280890008085550038089000b2
:101af000808555004808900080855500000222002e
:101b000090bf9f0000032300a0bf9f00081090001b
:101b10000028a30015003a000b00e0001300340079
:101b20000b0578008a047800e20f550001003600aa
:101b300029002000c801900009017800ee805700bc
:101b40005800900003000100500498000000e000dd
:101b50008c0032006808900009004000600c98007a
:101b6000090555004240a900eeff3c0078019000b5
:101b70000200e0000c003400c80190008c007800e6
:101b80005800900003000100500498008080eb0092
:101b90000000e0007c003200e8089000780090002f
:101ba00000804000600c9800880c90000900e00064
:101bb0001100340009057800e28f5400010036005e
:101bc0002a002000c80190000a017800ec8057002c
:101bd0005800900003000100500498000000e0004d
:101be00068003200680890000a004000600c98000d
:101bf0008a845400edff3700180990000200e000cd
:101c00000c003400c8019000e800900058009000db
:101c100003000100500498008080eb000000e00009
:101c200059003200e8089000180890000080400039
:101c3000600c9800a80c90000900e000110034002e
:101c400009057800e28f5400010036002a002000c8
:101c5000c80190000a017800ec80570058009000fd
:101c600003000100500498000000e000450032002d
:101c7000680890000a004000600c98008a845400b4
:101c8000edff3700380990000200e0000e0034003c
:101c9000e80090001808900080804000c801900083
:101ca0005800900003000100500498008080eb0071
:101cb0000000e00034003200e8089000380890008e
:101cc00000804000600c9800c80c90000900e00003
:101cd0001100340009057800e28f5400010036003d
:101ce0002a002000c80190000a017800ec8057000b
:101cf0005800900003000100500498000000e0002c
:101d000020003200680890000a004000600c980033
:101d10008a845400edff3700081090008000eb002b
:101d20000028a300180032000b00e0001600340069
:101d30008b04780009057800e28f5400010036001a
:101d40002a002000c80190000a017800ee805700a8
:101d50005800900003000100500498000000e000cb
:101d600008003200680890000a004000600c9800eb
:101d70008a8454004240a900eeff3c008000eb0042
:101d8000010037008080eb00010078004f067800ea
:101d90004f05be004f04be000080fa0000000600a0
:101da0000108780000000600e600400011017800fc
:101db00005002800850261006f016100820878003b
:101dc000020032001200200011003700a001900034
:101dd000120020000300e0000d003a009001900086
:101de0000300e0000a003a001000e00008003a009a
:101df00036003700640340009608780080017800c0
:101e0000530b7800900978000408780070015100a5
:101e1000110278000400e000f6ff320013003700e2
:101e200064024000140378004f33de0083814100d8
:101e30008308730080017800d3037800cf3bde0075
:101e40001403780006034300068a73001302780027
:101e500004024200100378004f33de00860972004e
:101e600090017800038841000201e90091017800a7
:101e7000ef8f5100eaff3600100037008001780034
:101e8000530378004f33dd001002d10004087300c3
:101e90006402400094037800cf3bdd001303d100bf
:101ea00086897300110378004f33dd009401d1005f
:101eb000030a73009108d1000201e8009101780043
:101ec000ff8f5100edff3e00ef88610091887200a6
:101ed00002007800000006008f1fd1000e020700ec
:101ee0008f87e9000000e00000000600809feb0003
:101ef000090207008f87e9000000e00000000600eb
:101f00002800fa00889fbe008a9fbe008c9fbe00fa
:101f100003866b008f0007006400e100440032007c
:101f20006408e1004a0032006100e100460032002e
:101f30006108e10049003200ec0647006000b8008b
:101f40003d02be003d03be00f48657006011b8009c
:101f50003d04be003d05be007d0320000b003700a0
:101f60000000a0008d06e9001300320004024200c8
:101f700085824a0006034b0087834b000000400027
:101f80008180480002014900838149000802520013
:101f900089825a000a035b008b835b00f0ff3b00e1
:101fa0000802420089824a000a034b008b834b00df
:101fb0008d06e900edff3a0084827200868272008d
:101fc000f707b2008782720001003200150020007e
:101fd0001e0490003e0b900006035400e63fb00044
:101fe0000368a300070032000000a7000500a0005e
:101ff0008301d1000281d3008180d3000080d3000f
:102000000603e8008301d1000281d3008180d30060
:102010000080d3000002eb000482d2002100070000
:1020200003f0a1000cf0a70003f0a0005d00370052
:10203000640247006408e100570032003400be002b
:102040003401be00f6ff37006108e10052003200a3
:102050006011b8006000b800f1ff370003ff2700ef
:1020600002002000fbff3700839f68000100e000b2
:1020700002003d0060001000e08018000300e00056
:1020800002003d0060011100e08119000f0107000e
:102090004f00e00002003b0060001000e0801800ec
:1020a000000006001800200057002000080453001c
:1020b0000d003d000600200097fc2f000740e100c6
:1020c0001e00340084827200610260008301d1002e
:1020d0000281d3008180d3000080d3000804e8008f
:1020e000f8ff3a0047002000610460000504740016
:1020f000040464000d00320061004000e0804800ec
:1021000060014900e081490003b8a50007003200e2
:102110000603e8006538e10004003a008301d100bd
:102120000281d3008180d3000080d300f87f20009b
:102130000830e10003003500080378006000b800b3
:102140006011b8004433dd00f300b2008301730076
:1021500000000600680447000294be000094be0020
:10216000fc0447008694be008494be0009007800f9
:10217000b201070008007800b0010700990078005c
:10218000814f70000b003b000800be008b01070070
:102190004f00b10003003700f3ff2700f2ff2f00cc
:1021a0006110b9004f06be004f05be004f04be00cf
:1021b0000080fa00000006008103780084fa07001e
:1021c0000001be006000b8000478a30013003a00cc
:1021d0006220e10015003e000d0039008301d100ae
:1021e0000281d3008180d3008301d1000281d3001a
:1021f0008180d3008301d1000281d3008180d3008c
:102200000538b000c42add00f300b20083817200fb
:1022100007f0a70003f0a00000000600f3ff27006e
:10222000f2ff2f006110b900fbff370003ff27000a
:10223000f7ff37001400fa00889fbe008a9fbe0097
:102240008c9fbe000004be000205be00680047006f
:102250000a90be000890be00780107000070a70039
:102260000bf0a100304320009e02900080825200bb
:10227000b0fe2f000028e10011003d00b0fc2f004f
:102280000028e100150034001e0990008e0890001f
:102290007e0090000501b0000201d1008180d300d2
:1022a0000080d3008502e800fbff3a000b00e0004d
:1022b000bcff3b0060001000e0801800b9ff370051
:1022c000f0ff2f00f1ff27000b00e000b5ff3b00ff
:1022d0000100280000002000b2ff37006000b800b5
:1022e000b0ff37004f89de00820178007a013700a5
:1022f0002800fa00889fbe008a9fbe008c9fbe0007
:1023000003866b0093ff07000028a30064003a00d7
:102310000128a30067003a000008a30062003a0009
:102320000108a30065003a001e009000be0890005e
:1023300081064000ed3fb100f4805700ee019000af
:10234000111ab8008e099000311bb8009e09900048
:10235000311cb800511db800f48557004600070035
:10236000fe0190003a0007008b85e8003e00070060
:102370008e09900040000700ee0190003400070035
:102380008b85e800380007008e09900040000700a8
:102390009e0990001b18b800890440000a85480077
:1023a000fe019000340007008b85e800380007002c
:1023b000ee019000300007008e0990001b18b80055
:1023c000890440000a8548000a98a30008003a00e2
:1023d0000402420085824a0006034b0087834b00bb
:1023e00008044c0089844c000a054d008d06e90064
:1023f00084827200850273004c3add00850272000f
:102400000100320015002000443ade001400b20042
:102410004538de00cb45dd000b007000c540de0016
:10242000cb4ddd008b8070004549de00cb55dd00d3
:102430000b017100c551de000d03780019ff070084
:1024400003f0a1000cf0a70003f0a00055ff370037
:102450001b18b8008502400006834800e0834b004b
:1024600060044c00070037001b18b800060340004a
:1024700087834800faff37001b18b8008703400025
:1024800008844800e0844c0060054d000000060010
:102490001b18b8000804400089844800faff370080
:1024a0000108a3003cff3a005800be005801be00de
:1024b000e3ff37000008a30037ff3a000904780063
:1024c000f9ff370007f0a200160037006022b800bd
:1024d000060220000000d0008180d2000482d200d9
:1024e0008582d2000000a0000202520083825a00be
:1024f000030031000202420083824a000000a10072
:102500000603e900f3ff3a0000000600020ab900e2
:10251000001bb9000200b8008100420081004300a6
:10252000000006002800fa00889fbe008a9fbe00b7
:102530008c9fbe0007067800878669000c003b0070
:10254000030478008704780008f0a10009f0a100d6
:10255000840f5000858f5800860f5900890f5c004a
:10256000030033000cf0a20001003a000cf0a100bf
:10257000f8fe07006400e1005f00320078014700c8
:102580006408e100610032006c0147007485570067
:102590003200be001201be003a04be001a05be00a1
:1025a0001e039000be0a90008503530006003d0004
:1025b0000004fd008104fd000205fd008305fd000f
:1025c0008703ea00050378000df8a3000400320039
:1025d00060041400e0841c0060051d00e0851d00ff
:1025e0006022b8007d0320000d38e1008006eb007a
:1025f0000b0039004433dd00f300b20083017300a7
:1026000039003700848272000d027800e106640010
:102610008b85d1000a85d3008984d3000884d30038
:102620008703e900f7ff3b0008004000898048006d
:102630000a0149008b81490004003b006000100042
:10264000e080180060011900e08119000358a30020
:10265000090032008d827200848272006102600083
:102660008301d1000281d3008180d3000080d30098
:102670000603e8001b0037000348a30017003a00d8
:102680000600e000170034000603e9000d00a30077
:102690000000480081804800020149008381490010
:1026a0000348a3000f003a000600e00009003400d0
:1026b0000603e90000004000818048000201490053
:1026c0008381490001003a000003eb000348a300a6
:1026d000f5ff32006022b8000200370084827200e9
:1026e000618266006ffe070003f0a1000cf0a700f6
:1026f00003f0a000abfe3700640147006408e1006e
:1027000002003a000df8a300a3fe3a003200be001a
:102710001201be00a3fe3700889fbe008a9fbe0044
:102720008c9fbe000404be000605be00809fbe0054
:10273000829fbe002f000700040678000800be003c
:102740000a01be002b000700840678004f03be007c
:102750004f02be008d4f76007fb09700130033000c
:10276000f0ff2f008b8f6b0006003b000d0666000c
:102770000c00a7000a00370007f0a6001000200098
:102780000a003700880f5200898f5a008a0f5b00b9
:102790008b8f5b00030039001000200001003e0019
:1027a0000000200007f0a7000000ea004f06be006e
:1027b0004f05be004f04be0000000600e48240004a
:1027c0001078a30007003200640240001178a300d3
:1027d0003400be001401be00040032000330a70024
:1027e000000006003500be001501be000330a00049
:1027f0000000060005ff2700058261000700320087
:102800000428e10001003200240005000600070052
:1028100001003a004400050004080500020007001a
:10282000f9ff3a00140005006f8261008102700018
:1028300085027100850272000000060080007800a9
:102840005002be005003be004439de00f700b20063
:10285000f37f200003016100090032000218e1004b
:1028600016003a00850172008301730083817300b2
:102870000008200015003a00400020001300370037
:1028800085017200830173008381730005003a00a3
:1028900004a8be0006a8be00100020000b003700f0
:1028a0000201e9000402420085824a0006034b004f
:1028b00087834b000748a300f9ff32000740a000c0
:1028c00004a8be0006a8be002000200080009800da
:1028d0009200980000000600881f7800030478002a
:1028e0000300e00007003d0060001000e0801800d9
:1028f00060011900e081190002003b0001f02d0089
:10290000030037000400070008f0a70003f0a00050
:102910004f04780000000600889fbe00008270000f
:10292000040271000482710024003200364320004a
:10293000c50020008383cf000a0039000541b100a3
:102940008283cf00070039000541b1008183cf00a9
:10295000040039000541b1008083cf000100390037
:102960000541b10085c353006022b8001200320057
:102970000a003b0084827200610260008301d10082
:102980000281d3008180d3000080d3000603e800d9
:102990008743e800f7ff3a000700370000004000d7
:1029a0008180480002014900838149000603e90053
:1029b0008743e900f9ff3a00bafd07004f04be0063
:0429c000000006000d
:020000040000fa
:1029c400566f00006c74000061670000653a0000f7
:1029d400202500002e32000066000000546500002f
:1029e4006d7000003a200000252e000031660000c2
:0829f400006600000000000075
:020000040000fa
:1029fc000000fa00a0fb2c0021002000dc020700e4
:102a0c00c9c2a900c922a900c9a2a900c822ef0005
:102a1c00cdc2a900cd22a900cda2a900b07e2d0067
:102a2c0001002000d2020700cd02a900cce2a900cf
:102a3c00ccc2a800cca2a8002c000700907f2400d8
:102a4c0001002000ca020700cd02a900cce2a900b7
:102a5c00ccc2a800cca2a8002400070000172000bc
:102a6c0001002000c2020700cd02a900cce2a9009f
:102a7c00ccc2a800cca2a8001c000700cd02a90063
:102a8c00cce2a900ccc2a800cca2a9001700070078
:102a9c0080c2b3002000070080c2b3001e000700f4
:102aac00c0c0b3001c00070010c0b3001a00070020
:102abc0060c0b30018000700907f240001002000c4
:102acc00ab0207000080fa00000006000000fa00cc
:102adc0010c0b30010000700907f240001002000fc
:102aec00a30207000080fa00000006000000fa00b4
:102afc00cdc2a800102e2000010020009c0207006f
:102b0c00cdc2a900102e2000010020009802070061
:102b1c000080fa00000006000400fa00204798002c
:102b2c0020ff28000100200091020700cd22a900ff
:102b3c002e4090000080fb004400de00004f780027
:102b4c001e80fb004300de00004078006140600006
:102b5c0061406000614060000080fb00610060002b
:102b6c004800dd00611680000180a10001007000aa
:102b7c00601688001e80fb004200de0000407800da
:102b8c006140600061406000614060000080fb00bb
:102b9c00610060004700dd00611680000170a1003b
:102bac0001007000601688001e80fb000000d10040
:102bbc00004078006140600061406000614060004e
:102bcc000080fb00610060004600dd0061168000a3
:102bdc000160a10001007000601688009e40780022
:102bec0061c0600061406000614060000080fb00db
:102bfc00610060004500dd00611680000150a100fd
:102c0c000100700060168800b8ff07002e4090008d
:102c1c000080fb004300de00004078006140600053
:102c2c0061406000614060000080fb00610060005a
:102c3c004800dd00611680000180a10001007000d9
:102c4c00601688002e4090000080fb004200de00e1
:102c5c0000407800614060006140600061406000ad
:102c6c000080fb00610060004700dd006116800001
:102c7c000170a10001007000601688002e409000c9
:102c8c000080fb000000d100004078006140600033
:102c9c0061406000614060000080fb0061006000ea
:102cac004600dd00611680000160a100010070008b
:102cbc00601688002e40900061406000614060000a
:102ccc00614060000080fb00610060004500dd0099
:102cdc00611680000150a100010070006016880090
:102cec0082ff07000080fa00000006000400fa00d2
:102cfc002047980020ff2800010020001c0207003c
:102d0c00cd22a8002e4090000080fb004400de0085
:102d1c00004f78001e80fb004300de00004078006e
:102d2c006140600061406000614060000080fb0019
:102d3c00610060004800dd00611680000180a10088
:102d4c0001007000601688001e80fb004200de004f
:102d5c0000407800614060006140600061406000ac
:102d6c000080fb00610060004700dd006116800000
:102d7c000170a10001007000601688001e80fb002d
:102d8c000000d100004078006140600061406000ac
:102d9c00614060000080fb00610060004600dd00c7
:102dac00611680000160a1000100700060168800af
:102dbc009e40780061c0600061406000614060002e
:102dcc000080fb00610060004500dd0061168000a2
:102ddc000150a100010070006016880043ff07003d
:102dec002e4090000080fb004300de000040780085
:102dfc006140600061406000614060000080fb0049
:102e0c00610060004800dd00611680000180a100b7
:102e1c0001007000601688002e4090000080fb00be
:102e2c004200de00004078006140600061406000bc
:102e3c00614060000080fb00610060004700dd0025
:102e4c00611680000170a1000100700060168800fe
:102e5c002e4090000080fb000000d1000040780064
:102e6c006140600061406000614060000080fb00d8
:102e7c00610060004600dd00611680000160a10069
:102e8c0001007000601688002e40900061406000c8
:102e9c0061406000614060000080fb0061006000e8
:102eac004500dd00611680000150a100010070009a
:102ebc00601688000dff07000080fa000000060075
:102ecc000200fa00000f7800040037001e007800a2
:102edc001040780085ff07001e0fe8001e007800e8
:102eec00104078000004e000f8ff3a000080fa007f
:102efc00000006000200fa00000f78001e007800a7
:102f0c00401988002023a800000000000019800050
:102f1c00610060000000e000fcff3200001880003f
:102f2c000080fa00000006000200fa00000f780092
:102f3c001e0078000b00070060198800000e2000ae
:102f4c00001988002143a8003023ef0020f0210055
:102f5c00201988002223ef0021e3a8000080fa004a
:102f6c00000006000400fa0010079800e0ff2f0094
:102f7c00000f78001e0090000000e00002003a00f4
:102f8c00e0ff2f00000f78001e009000e10f5000b2
:102f9c0002003a00d0ff2f00000f78001e009000b6
:102fac00e20f500002003a00b0ff2f00000f780033
:102fbc001e009000e30f500002003a0070ff2f003b
:102fcc00000f78001e009000e40f500002003a0041
:102fdc00f0fe2f00000f78001e009000e50f50004f
:102fec0002003a00f0fd2f00000f78001e00900048
:102ffc00e90f500002003a00f0df2f00000f7800bc
:10300c001e009000ea0f500002003a00f0bf2f00a3
:10301c00000f78001e009000eb0f500002003a00e9
:10302c00f07f2f00000f78001e009000ec0f500076
:10303c0002003a00f0ff2e00000f78001e0078000e
:10304c000080fa00000006000200fa00000f780071
:10305c001e68ef001f68ef002068ef002168ef008a
:10306c002268ef0005003700008f2d001e0f400076
:10307c001ec8bf000040e8001ee8b700f070220038
:10308c009e007800808f5000f7ff3c000500370051
:10309c0081c12f001e8f40001fc8bf000040e800f8
:1030ac001fe8b700703e20009e007800808f500013
:1030bc00f7ff3c0005003700c1f92f001e8f4000c0
:1030cc0020c8bf000040e80020e8b7003006200010
:1030dc009e007800808f5000f7ff3c000500370001
:1030ec009e0078006a8f500021c8bf000040e800a5
:1030fc0021e8b7001e007800e90f5000f8ff3c00f3
:10310c001e0078000040780022e8b7001ec8bf00ff
:10311c000043b0001ee8b7001fc8bf000043b0005a
:10312c001fe8b70020c8bf000043b00020e8b7007c
:10313c0021c8bf000043b00021e8b70022c8bf007f
:10314c000043b00022e8b7000080fa00000006003f
:10315c000400fa00100798009e009000010f780000
:10316c002428ef001e00780062ff07002041880031
:10317c001e0078005fff0700214180000100400025
:10318c00204188001e0078005aff07002141800072
:10319c0001004000204188001e00780055ff070008
:1031ac002141800001004000204188002141800025
:1031bc004000200000017800110009008200d800b6
:1031cc0020418800204180000080fa0000000600a9
:1031dc000c00fa0040079800510798004e0190002f
:1031ec00de01900060662a0091452400eaf4070095
:1031fc00d2fc2a0063be2300caf50700b272280075
:10320c00231f2400e5f40700faf50700008fbe0029
:10321c0062ba2000e33824001e00be00c1f507008e
:10322c0052622000e3202400dcf407002007980001
:10323c00310798002e009000be0090000080fa002c
:10324c00000006000800fa00889fbe0020079800c6
:10325c0031079800e1408000b04080000088b90040
:10326c0000017800c1408000d04080000088b90087
:10327c000000780000005100cf80de0066f50700ea
:10328c000004be00d1408000b0408000008050009f
:10329c00cf80de0060f507002e019000be0190008b
:1032ac00a0f507000001be000800be00bbf407003b
:1032bc000004be00e1408000c0408000008050004f
:1032cc00cf80de0054f507000001be000800be00f0
:1032dc000ff50700008fbe001e00be004f04be009d
:1032ec000080fa00000006000800fa002007980091
:1032fc00310798006266260063fe23002e009000c2
:10330c00be00900087f50700020020000320240077
:10331c00a2f40700008fbe001e00be000080fa0061
:10332c00000006000000fa0010002000fefe07005e
:10333c00affd0700e5fd070010002000edfe0700c3
:10334c0000408800004080008000eb0035f507004d
:10335c00323323003305240072f5070002002000ed
:10336c0003582400eaf407000002be0090408000dd
:10337c00a14080000001be000400be0087f40700dd
:10338c0010408800214088001040800021408000bf
:10339c0002002000a347240062f50700704088005b
:1033ac008140880000c8b300dbfd0700704080003e
:1033bc0081408000809fbe00204e2900801f780035
:1033cc00008820001bf60700e687570000882000c5
:1033dc00bbfe0700704080008140800099ff070011
:1033ec0030408800414088003040800041408000df
:1033fc00bdff0700504088006140880050408000ad
:10340c0061408000809fbe00004f2900801f780023
:10341c00808a200007f60700e687570000ccb3002f
:10342c00bdfd0700808a2000a5fe0700a0ccb300dc
:10343c00b9fd0700f0cdb3002cfe0700b0ccb300f3
:10344c00b5fd0700b04f29009dfe070020ff2800a6
:0c345c000100200046000700b7ff370009
:020000040000fa
:103468008008000050000000000000000008000074
:103478001200000000000000120800000c0000000c
:1034880002000000295c8f00bc1b000077031000bd
:1034980000b303001e080000080000000000000040
:1034a800260800000200000000000000d00800000c
:1034b8001a00000002000000686a6c00747a4c0070
:1034c80000000100000200000400080000100000d5
:1034d800000020002b2d23003000000028080000e9
:1034e80058000000020000006e616e00004e4100ae
:1034f8004e0069006e660000494e4600000000005c
:10350800000000000024400000000000000000004f
:1035180059400000000000000088c300400000007f
:1035280000008400d79741000080e0003779c3008d
:10353800414317006e05b500b5b8930046f5f9008c
:103548003fe903004f384d00321d3000f94877003d
:10355800825a3c00bf737f00dd4f150075000000e4
:10356800ea0800000200000002000000300000002d
:04357800000000004f
:020000040000fa
:10357c00f03fb1000180b10006003500ee030900f8
:10358c0000000000403fb1000180b100fbff3d0096
:10359c001000b000203fb000020035000080090090
:0835ac00000000000000060011
:020000040000fa
:0200000401f009
:04000c008000000070
:020000040000fa
:0200000401f009
:04001000a300000049
:020000040000fa
:0200000401f009
:040014005f00000089
:00000001FF
