:020000040000fa
:080000000002040000000000f2
:020000040000fa
:04000800c80200002a
:020000040000fa
:04000c00c802000026
:020000040000fa
:04001000c802000022
:020000040000fa
:04001400c80200001e
:020000040000fa
:04001800c80200001a
:020000040000fa
:04001c00c802000016
:020000040000fa
:04002000c802000012
:020000040000fa
:04002400c80200000e
:020000040000fa
:04002800c80200000a
:020000040000fa
:04002c00c802000006
:020000040000fa
:04003000c802000002
:020000040000fa
:04003400c8020000fe
:020000040000fa
:04003800c8020000fa
:020000040000fa
:04003c00c8020000f6
:020000040000fa
:04004000c8020000f2
:020000040000fa
:04004400c8020000ee
:020000040000fa
:04004800c8020000ea
:020000040000fa
:04004c00c8020000e6
:020000040000fa
:04005000c8020000e2
:020000040000fa
:04005400c8020000de
:020000040000fa
:04005800c8020000da
:020000040000fa
:04005c00c8020000d6
:020000040000fa
:04006000c8020000d2
:020000040000fa
:04006400c8020000ce
:020000040000fa
:04006800c8020000ca
:020000040000fa
:04006c00c8020000c6
:020000040000fa
:04007000c8020000c2
:020000040000fa
:04007400c8020000be
:020000040000fa
:04007800c8020000ba
:020000040000fa
:04007c00c8020000b6
:020000040000fa
:04008000c8020000b2
:020000040000fa
:04008400c8020000ae
:020000040000fa
:04008800c8020000aa
:020000040000fa
:04008c00c8020000a6
:020000040000fa
:04009000c8020000a2
:020000040000fa
:04009400c80200009e
:020000040000fa
:04009800c80200009a
:020000040000fa
:04009c00c802000096
:020000040000fa
:0400a000c802000092
:020000040000fa
:0400a400c80200008e
:020000040000fa
:0400a800c80200008a
:020000040000fa
:0400ac00c802000086
:020000040000fa
:0400b000c802000082
:020000040000fa
:0400b400c80200007e
:020000040000fa
:0400b800c80200007a
:020000040000fa
:0400bc00c802000076
:020000040000fa
:0400c000c802000072
:020000040000fa
:0400c400c80200006e
:020000040000fa
:0400c800c80200006a
:020000040000fa
:0400cc00c802000066
:020000040000fa
:0400d000c802000062
:020000040000fa
:0400d400c80200005e
:020000040000fa
:0400d800c80200005a
:020000040000fa
:0400dc00c802000056
:020000040000fa
:0400e000c802000052
:020000040000fa
:0400e400c80200004e
:020000040000fa
:0400e800c80200004a
:020000040000fa
:0400ec00c802000046
:020000040000fa
:0400f000c802000042
:020000040000fa
:0400f400c80200003e
:020000040000fa
:0400f800c80200003a
:020000040000fa
:0400fc00c802000036
:020000040000fa
:04010000c802000031
:020000040000fa
:04010400c80200002d
:020000040000fa
:04010800c802000029
:020000040000fa
:04010c00c802000025
:020000040000fa
:04011000c802000021
:020000040000fa
:04011400c80200001d
:020000040000fa
:04011800c802000019
:020000040000fa
:04011c00c802000015
:020000040000fa
:04012000c802000011
:020000040000fa
:04012400c80200000d
:020000040000fa
:04012800c802000009
:020000040000fa
:04012c00c802000005
:020000040000fa
:04013000c802000001
:020000040000fa
:04013400c8020000fd
:020000040000fa
:04013800c8020000f9
:020000040000fa
:04013c00c8020000f5
:020000040000fa
:04014000c8020000f1
:020000040000fa
:04014400c8020000ed
:020000040000fa
:04014800c8020000e9
:020000040000fa
:04014c00c8020000e5
:020000040000fa
:04015000c8020000e1
:020000040000fa
:04015400c8020000dd
:020000040000fa
:04015800c8020000d9
:020000040000fa
:04015c00c8020000d5
:020000040000fa
:04016000c8020000d1
:020000040000fa
:04016400c8020000cd
:020000040000fa
:04020800c802000028
:020000040000fa
:04020c00c802000024
:020000040000fa
:04021000c802000020
:020000040000fa
:04021400c80200001c
:020000040000fa
:04021800c802000018
:020000040000fa
:04021c00c802000014
:020000040000fa
:04022000c802000010
:020000040000fa
:04022400c80200000c
:020000040000fa
:04022800c802000008
:020000040000fa
:04022c00c802000004
:020000040000fa
:04023000c802000000
:020000040000fa
:04023400c8020000fc
:020000040000fa
:04023800c8020000f8
:020000040000fa
:04023c00c8020000f4
:020000040000fa
:04024000c8020000f0
:020000040000fa
:04024400c8020000ec
:020000040000fa
:04024800c8020000e8
:020000040000fa
:04024c00c8020000e4
:020000040000fa
:04025000c8020000e0
:020000040000fa
:04025400c8020000dc
:020000040000fa
:04025800c8020000d8
:020000040000fa
:04025c00c8020000d4
:020000040000fa
:04026000c8020000d0
:020000040000fa
:04026400c8020000cc
:020000040000fa
:04026800c8020000c8
:020000040000fa
:04026c00c8020000c4
:020000040000fa
:04027000c8020000c0
:020000040000fa
:04027400c8020000bc
:020000040000fa
:04027800c8020000b8
:020000040000fa
:04027c00c8020000b4
:020000040000fa
:04028000c8020000b0
:020000040000fa
:04028400c8020000ac
:020000040000fa
:04028800c8020000a8
:020000040000fa
:04028c00c8020000a4
:020000040000fa
:04029000c8020000a0
:020000040000fa
:04029400c80200009c
:020000040000fa
:04029800c802000098
:020000040000fa
:04029c00c802000094
:020000040000fa
:0402a000c802000090
:020000040000fa
:0402a400c80200008c
:020000040000fa
:0402a800c802000088
:020000040000fa
:0402ac00c802000084
:020000040000fa
:0402b000c802000080
:020000040000fa
:0402b400c80200007c
:020000040000fa
:0402b800c802000078
:020000040000fa
:0402bc00c802000074
:020000040000fa
:0402c000c802000070
:020000040000fa
:0402c400c80200006c
:020000040000fa
:0402c800c802000068
:020000040000fa
:0402cc00c802000064
:020000040000fa
:0402d000c802000060
:020000040000fa
:0402d400c80200005c
:020000040000fa
:0402d800c802000058
:020000040000fa
:0402dc00c802000054
:020000040000fa
:0402e000c802000050
:020000040000fa
:0402e400c80200004c
:020000040000fa
:0402e800c802000048
:020000040000fa
:0402ec00c802000044
:020000040000fa
:0402f000c802000040
:020000040000fa
:0402f400c80200003c
:020000040000fa
:0402f800c802000038
:020000040000fa
:0402fc00c802000034
:020000040000fa
:04030000c80200002f
:020000040000fa
:04030400c80200002b
:020000040000fa
:04030800c802000027
:020000040000fa
:04030c00c802000023
:020000040000fa
:04031000c80200001f
:020000040000fa
:04031400c80200001b
:020000040000fa
:04031800c802000017
:020000040000fa
:04031c00c802000013
:020000040000fa
:04032000c80200000f
:020000040000fa
:04032400c80200000b
:020000040000fa
:04032800c802000007
:020000040000fa
:04032c00c802000003
:020000040000fa
:04033000c8020000ff
:020000040000fa
:04033400c8020000fb
:020000040000fa
:04033800c8020000f7
:020000040000fa
:04033c00c8020000f3
:020000040000fa
:04034000c8020000ef
:020000040000fa
:04034400c8020000eb
:020000040000fa
:04034800c8020000e7
:020000040000fa
:04034c00c8020000e3
:020000040000fa
:04035000c8020000df
:020000040000fa
:04035400c8020000db
:020000040000fa
:04035800c8020000d7
:020000040000fa
:04035c00c8020000d3
:020000040000fa
:04036000c8020000cf
:020000040000fa
:04036400c8020000cb
:020000040000fa
:100400000f8020000e7f22000e01880000000000f7
:10041000000020000000e000020032000001200087
:1004200020028800140007005b0007000000e000c5
:1004300003003a0000002000010020000200370005
:100440000000200001002000810f70000100320038
:1004500014000700000020000000e000020032004d
:100460000000020000000000700502000000000013
:100470000040da000000fe004440a9000002200015
:100480000000e0000300320000002000a00188000e
:100490004440a800000006008a1f78008b1f7800e7
:1004a0000000060091018800800478000000eb0045
:1004b0001a003700e284440032a0b4009905ba0063
:1004c000e284440032a0b4009906ba00e2844400f9
:1004d00032a0b4000006eb00476fde00fd07b2005b
:1004e000636ce10003003a00ebff07000000eb0043
:1004f0000a003700606ce10004003a00005deb0088
:100500008b05e900fdff3e00040037006168e10053
:10051000010032000086eb000b00070019c7ba008b
:100520001905ba000e04e00003003a000a00e000da
:10053000e0ff3a0000000600fe07b2009e018800be
:100540008a047800f5ff3700395dba008b05e900b1
:100550000c003200295dba008b05e900080032006a
:100560000c00e00003003a00e284440032a0b40032
:10057000f5ff370019ddba008b05e900faff3a00f4
:100580008904e800e184440032a0b40000000600c1
:0c0590000040da000000fe000000050042
:020000040000fa
:10059c00486500006c6c00006f200000746800005f
:1005ac006572000065210000004500006e6a0000c5
:1005bc006f790000204c00004344000020440000f0
:1005cc00656d00006f0000003c0000003e00000064
:020000040000fa
:1005dc000000fa00a0fb2c002100200059010700ac
:1005ec00c9c2a900c922a900c9a2a900c822ef004a
:1005fc00cdc2a900cd22a900cda2a900b07e2d00ac
:10060c00010020004f010700cd02a900cce2a90097
:10061c00ccc2a800cca2a8002c000700907f24001c
:10062c000100200047010700cd02a900cce2a9007f
:10063c00ccc2a800cca2a800240007000017200000
:10064c00010020003f010700cd02a900cce2a90067
:10065c00ccc2a800cca2a8001c000700cd02a900a7
:10066c00cce2a900ccc2a800cca2a90017000700bc
:10067c0080c2b3002000070080c2b3001e00070038
:10068c00c0c0b3001c00070010c0b3001a00070064
:10069c0060c0b30018000700907f24000100200008
:1006ac00280107000080fa00000006000000fa0094
:1006bc0010c0b30010000700907f24000100200040
:1006cc00200107000080fa00000006000000fa007c
:1006dc00cdc2a800102e2000010020001901070037
:1006ec00cdc2a900102e200001002000150107002a
:1006fc000080fa00000006000400fa002047980071
:10070c0020ff2800010020000e010700cd22a900c7
:10071c002e4090000080fb004400de00004f78006b
:10072c001e80fb004300de0000407800614060004a
:10073c0061406000614060000080fb00610060006f
:10074c004800dd00611680000180a10001007000ee
:10075c00601688001e80fb004200de00004078001e
:10076c006140600061406000614060000080fb00ff
:10077c00610060004700dd00611680000170a1007f
:10078c0001007000601688001e80fb000000d10084
:10079c000040780061406000614060006140600092
:1007ac000080fb00610060004600dd0061168000e7
:1007bc000160a10001007000601688009e40780066
:1007cc0061c0600061406000614060000080fb001f
:1007dc00610060004500dd00611680000150a10041
:1007ec000100700060168800b8ff07002e409000d2
:1007fc000080fb004300de00004078006140600098
:10080c0061406000614060000080fb00610060009e
:10081c004800dd00611680000180a100010070001d
:10082c00601688002e4090000080fb004200de0025
:10083c0000407800614060006140600061406000f1
:10084c000080fb00610060004700dd006116800045
:10085c000170a10001007000601688002e4090000d
:10086c000080fb000000d100004078006140600077
:10087c0061406000614060000080fb00610060002e
:10088c004600dd00611680000160a10001007000cf
:10089c00601688002e40900061406000614060004e
:1008ac00614060000080fb00610060004500dd00dd
:1008bc00611680000150a1000100700060168800d4
:1008cc0082ff07000080fa00000006000400fa0016
:1008dc002047980020ff2800010020009900070005
:1008ec00cd22a8002e4090000080fb004400de00ca
:1008fc00004f78001e80fb004300de0000407800b3
:10090c006140600061406000614060000080fb005d
:10091c00610060004800dd00611680000180a100cc
:10092c0001007000601688001e80fb004200de0093
:10093c0000407800614060006140600061406000f0
:10094c000080fb00610060004700dd006116800044
:10095c000170a10001007000601688001e80fb0071
:10096c000000d100004078006140600061406000f0
:10097c00614060000080fb00610060004600dd000b
:10098c00611680000160a1000100700060168800f3
:10099c009e40780061c06000614060006140600072
:1009ac000080fb00610060004500dd0061168000e6
:1009bc000150a100010070006016880043ff070081
:1009cc002e4090000080fb004300de0000407800c9
:1009dc006140600061406000614060000080fb008d
:1009ec00610060004800dd00611680000180a100fc
:1009fc0001007000601688002e4090000080fb0003
:100a0c004200de0000407800614060006140600000
:100a1c00614060000080fb00610060004700dd0069
:100a2c00611680000170a100010070006016880042
:100a3c002e4090000080fb000000d10000407800a8
:100a4c006140600061406000614060000080fb001c
:100a5c00610060004600dd00611680000160a100ad
:100a6c0001007000601688002e409000614060000c
:100a7c0061406000614060000080fb00610060002c
:100a8c004500dd00611680000150a10001007000de
:100a9c00601688000dff07000080fa0000000600b9
:100aac000200fa00000f7800040037001e007800e6
:100abc001040780085ff07001e0fe8001e0078002c
:100acc00104078000004e000f8ff3a000080fa00c3
:100adc00000006000200fa00bdfe0700f3fe07004e
:100aec000000eb00000f780000c8b30002ff070005
:100afc00e02c2800eaff070000ccb300fefe070044
:100b0c00b02d2800e6ff0700f0c8b300fafe07007e
:100b1c001e0078000000e00005003a0010002000e4
:100b2c00000f7800a02e2800ddff0700eeff370035
:100b3c000000eb00000f7800c02e2800d8ff070043
:040b4c00e9ff370086
:020000040000fa
:100b5000f03fb1000180b10006003500ee0309004e
:100b600000000000403fb1000180b100fbff3d00ec
:100b70001000b000203fb0000200350000800900e6
:080b8000000000000000060067
:020000040000fa
:0200000401f009
:04000c008000000070
:020000040000fa
:0200000401f009
:04001000a300000049
:020000040000fa
:0200000401f009
:040014005f00000089
:00000001FF
